{
  "contractName": "PharmaSupplyChain",
  "abi": [
    {
      "inputs": [],
      "stateMutability": "nonpayable",
      "type": "constructor"
    },
    {
      "anonymous": false,
      "inputs": [
        {
          "indexed": true,
          "internalType": "address",
          "name": "owner",
          "type": "address"
        },
        {
          "indexed": true,
          "internalType": "address",
          "name": "approved",
          "type": "address"
        },
        {
          "indexed": true,
          "internalType": "uint256",
          "name": "tokenId",
          "type": "uint256"
        }
      ],
      "name": "Approval",
      "type": "event"
    },
    {
      "anonymous": false,
      "inputs": [
        {
          "indexed": true,
          "internalType": "address",
          "name": "owner",
          "type": "address"
        },
        {
          "indexed": true,
          "internalType": "address",
          "name": "operator",
          "type": "address"
        },
        {
          "indexed": false,
          "internalType": "bool",
          "name": "approved",
          "type": "bool"
        }
      ],
      "name": "ApprovalForAll",
      "type": "event"
    },
    {
      "anonymous": false,
      "inputs": [
        {
          "indexed": true,
          "internalType": "address",
          "name": "previousOwner",
          "type": "address"
        },
        {
          "indexed": true,
          "internalType": "address",
          "name": "newOwner",
          "type": "address"
        }
      ],
      "name": "OwnershipTransferred",
      "type": "event"
    },
    {
      "anonymous": false,
      "inputs": [
        {
          "indexed": true,
          "internalType": "address",
          "name": "from",
          "type": "address"
        },
        {
          "indexed": true,
          "internalType": "address",
          "name": "to",
          "type": "address"
        },
        {
          "indexed": true,
          "internalType": "uint256",
          "name": "tokenId",
          "type": "uint256"
        }
      ],
      "name": "Transfer",
      "type": "event"
    },
    {
      "anonymous": false,
      "inputs": [
        {
          "indexed": false,
          "internalType": "uint256",
          "name": "tokenId",
          "type": "uint256"
        }
      ],
      "name": "shipmentCreated",
      "type": "event"
    },
    {
      "anonymous": false,
      "inputs": [
        {
          "indexed": false,
          "internalType": "uint256",
          "name": "tokenId",
          "type": "uint256"
        },
        {
          "indexed": false,
          "internalType": "address",
          "name": "newOwner",
          "type": "address"
        }
      ],
      "name": "shipmentTransferred",
      "type": "event"
    },
    {
      "inputs": [
        {
          "internalType": "address",
          "name": "to",
          "type": "address"
        },
        {
          "internalType": "uint256",
          "name": "tokenId",
          "type": "uint256"
        }
      ],
      "name": "approve",
      "outputs": [],
      "stateMutability": "nonpayable",
      "type": "function"
    },
    {
      "inputs": [
        {
          "internalType": "address",
          "name": "owner",
          "type": "address"
        }
      ],
      "name": "balanceOf",
      "outputs": [
        {
          "internalType": "uint256",
          "name": "",
          "type": "uint256"
        }
      ],
      "stateMutability": "view",
      "type": "function",
      "constant": true
    },
    {
      "inputs": [
        {
          "internalType": "uint256",
          "name": "tokenId",
          "type": "uint256"
        }
      ],
      "name": "getApproved",
      "outputs": [
        {
          "internalType": "address",
          "name": "",
          "type": "address"
        }
      ],
      "stateMutability": "view",
      "type": "function",
      "constant": true
    },
    {
      "inputs": [
        {
          "internalType": "address",
          "name": "owner",
          "type": "address"
        },
        {
          "internalType": "address",
          "name": "operator",
          "type": "address"
        }
      ],
      "name": "isApprovedForAll",
      "outputs": [
        {
          "internalType": "bool",
          "name": "",
          "type": "bool"
        }
      ],
      "stateMutability": "view",
      "type": "function",
      "constant": true
    },
    {
      "inputs": [],
      "name": "name",
      "outputs": [
        {
          "internalType": "string",
          "name": "",
          "type": "string"
        }
      ],
      "stateMutability": "view",
      "type": "function",
      "constant": true
    },
    {
      "inputs": [],
      "name": "owner",
      "outputs": [
        {
          "internalType": "address",
          "name": "",
          "type": "address"
        }
      ],
      "stateMutability": "view",
      "type": "function",
      "constant": true
    },
    {
      "inputs": [
        {
          "internalType": "uint256",
          "name": "tokenId",
          "type": "uint256"
        }
      ],
      "name": "ownerOf",
      "outputs": [
        {
          "internalType": "address",
          "name": "",
          "type": "address"
        }
      ],
      "stateMutability": "view",
      "type": "function",
      "constant": true
    },
    {
      "inputs": [],
      "name": "renounceOwnership",
      "outputs": [],
      "stateMutability": "nonpayable",
      "type": "function"
    },
    {
      "inputs": [
        {
          "internalType": "address",
          "name": "from",
          "type": "address"
        },
        {
          "internalType": "address",
          "name": "to",
          "type": "address"
        },
        {
          "internalType": "uint256",
          "name": "tokenId",
          "type": "uint256"
        }
      ],
      "name": "safeTransferFrom",
      "outputs": [],
      "stateMutability": "nonpayable",
      "type": "function"
    },
    {
      "inputs": [
        {
          "internalType": "address",
          "name": "from",
          "type": "address"
        },
        {
          "internalType": "address",
          "name": "to",
          "type": "address"
        },
        {
          "internalType": "uint256",
          "name": "tokenId",
          "type": "uint256"
        },
        {
          "internalType": "bytes",
          "name": "data",
          "type": "bytes"
        }
      ],
      "name": "safeTransferFrom",
      "outputs": [],
      "stateMutability": "nonpayable",
      "type": "function"
    },
    {
      "inputs": [
        {
          "internalType": "address",
          "name": "operator",
          "type": "address"
        },
        {
          "internalType": "bool",
          "name": "approved",
          "type": "bool"
        }
      ],
      "name": "setApprovalForAll",
      "outputs": [],
      "stateMutability": "nonpayable",
      "type": "function"
    },
    {
      "inputs": [
        {
          "internalType": "bytes4",
          "name": "interfaceId",
          "type": "bytes4"
        }
      ],
      "name": "supportsInterface",
      "outputs": [
        {
          "internalType": "bool",
          "name": "",
          "type": "bool"
        }
      ],
      "stateMutability": "view",
      "type": "function",
      "constant": true
    },
    {
      "inputs": [],
      "name": "symbol",
      "outputs": [
        {
          "internalType": "string",
          "name": "",
          "type": "string"
        }
      ],
      "stateMutability": "view",
      "type": "function",
      "constant": true
    },
    {
      "inputs": [
        {
          "internalType": "uint256",
          "name": "index",
          "type": "uint256"
        }
      ],
      "name": "tokenByIndex",
      "outputs": [
        {
          "internalType": "uint256",
          "name": "",
          "type": "uint256"
        }
      ],
      "stateMutability": "view",
      "type": "function",
      "constant": true
    },
    {
      "inputs": [
        {
          "internalType": "address",
          "name": "owner",
          "type": "address"
        },
        {
          "internalType": "uint256",
          "name": "index",
          "type": "uint256"
        }
      ],
      "name": "tokenOfOwnerByIndex",
      "outputs": [
        {
          "internalType": "uint256",
          "name": "",
          "type": "uint256"
        }
      ],
      "stateMutability": "view",
      "type": "function",
      "constant": true
    },
    {
      "inputs": [
        {
          "internalType": "uint256",
          "name": "tokenId",
          "type": "uint256"
        }
      ],
      "name": "tokenURI",
      "outputs": [
        {
          "internalType": "string",
          "name": "",
          "type": "string"
        }
      ],
      "stateMutability": "view",
      "type": "function",
      "constant": true
    },
    {
      "inputs": [],
      "name": "totalSupply",
      "outputs": [
        {
          "internalType": "uint256",
          "name": "",
          "type": "uint256"
        }
      ],
      "stateMutability": "view",
      "type": "function",
      "constant": true
    },
    {
      "inputs": [
        {
          "internalType": "address",
          "name": "from",
          "type": "address"
        },
        {
          "internalType": "address",
          "name": "to",
          "type": "address"
        },
        {
          "internalType": "uint256",
          "name": "tokenId",
          "type": "uint256"
        }
      ],
      "name": "transferFrom",
      "outputs": [],
      "stateMutability": "nonpayable",
      "type": "function"
    },
    {
      "inputs": [
        {
          "internalType": "address",
          "name": "newOwner",
          "type": "address"
        }
      ],
      "name": "transferOwnership",
      "outputs": [],
      "stateMutability": "nonpayable",
      "type": "function"
    },
    {
      "inputs": [
        {
          "internalType": "address",
          "name": "addrOfUser",
          "type": "address"
        },
        {
          "internalType": "enum PharmaSupplyChain.role",
          "name": "roleOfUser",
          "type": "uint8"
        }
      ],
      "name": "onBoardUser",
      "outputs": [],
      "stateMutability": "nonpayable",
      "type": "function"
    },
    {
      "inputs": [],
      "name": "viewRole",
      "outputs": [
        {
          "internalType": "string",
          "name": "",
          "type": "string"
        }
      ],
      "stateMutability": "view",
      "type": "function",
      "constant": true
    },
    {
      "inputs": [
        {
          "internalType": "string",
          "name": "nameOfItem",
          "type": "string"
        },
        {
          "internalType": "string",
          "name": "description",
          "type": "string"
        },
        {
          "internalType": "address",
          "name": "manufacturer",
          "type": "address"
        }
      ],
      "name": "createPurchaseOrder",
      "outputs": [],
      "stateMutability": "nonpayable",
      "type": "function"
    },
    {
      "inputs": [],
      "name": "viewPurchaseOrders",
      "outputs": [
        {
          "internalType": "string",
          "name": "",
          "type": "string"
        },
        {
          "internalType": "string",
          "name": "",
          "type": "string"
        },
        {
          "internalType": "address",
          "name": "",
          "type": "address"
        }
      ],
      "stateMutability": "view",
      "type": "function",
      "constant": true
    },
    {
      "inputs": [
        {
          "internalType": "uint256",
          "name": "batchNumber",
          "type": "uint256"
        },
        {
          "internalType": "string",
          "name": "nameOfItem",
          "type": "string"
        },
        {
          "internalType": "string",
          "name": "expiryDate",
          "type": "string"
        },
        {
          "internalType": "uint256",
          "name": "price",
          "type": "uint256"
        }
      ],
      "name": "createShipment",
      "outputs": [],
      "stateMutability": "nonpayable",
      "type": "function"
    },
    {
      "inputs": [
        {
          "internalType": "uint256",
          "name": "tokenId",
          "type": "uint256"
        }
      ],
      "name": "viewShipment",
      "outputs": [
        {
          "internalType": "uint256",
          "name": "",
          "type": "uint256"
        },
        {
          "internalType": "string",
          "name": "",
          "type": "string"
        },
        {
          "internalType": "string",
          "name": "",
          "type": "string"
        },
        {
          "internalType": "enum PharmaSupplyChain.shipmentState",
          "name": "",
          "type": "uint8"
        },
        {
          "internalType": "address",
          "name": "",
          "type": "address"
        },
        {
          "internalType": "uint256",
          "name": "",
          "type": "uint256"
        }
      ],
      "stateMutability": "view",
      "type": "function",
      "constant": true
    },
    {
      "inputs": [
        {
          "internalType": "uint256",
          "name": "tokenId",
          "type": "uint256"
        },
        {
          "internalType": "address",
          "name": "newOwner",
          "type": "address"
        }
      ],
      "name": "transferShipment",
      "outputs": [],
      "stateMutability": "nonpayable",
      "type": "function"
    }
  ],
  "bytecode": "0x608060405260405180608001604052806040518060400160405280600c81526020017f4d616e756661637475726572000000000000000000000000000000000000000081525081526020016040518060400160405280600a81526020017f506861726d61636973740000000000000000000000000000000000000000000081525081526020016040518060400160405280600581526020017f427579657200000000000000000000000000000000000000000000000000000081525081526020016040518060400160405280600581526020017f41646d696e000000000000000000000000000000000000000000000000000000815250815250600b9060046200010b9291906200033d565b503480156200011957600080fd5b506040518060400160405280601981526020017f506861726d61537570706c79436861696e536f6c7574696f6e000000000000008152506040518060400160405280600481526020017f505343530000000000000000000000000000000000000000000000000000000081525081600090805190602001906200019e929190620003a4565b508060019080519060200190620001b7929190620003a4565b505050620001da620001ce6200026f60201b60201c565b6200027760201b60201c565b6003600d60003373ffffffffffffffffffffffffffffffffffffffff1673ffffffffffffffffffffffffffffffffffffffff16815260200190815260200160002060006101000a81548160ff0219169083600381111562000264577f4e487b7100000000000000000000000000000000000000000000000000000000600052602160045260246000fd5b021790555062000527565b600033905090565b6000600a60009054906101000a900473ffffffffffffffffffffffffffffffffffffffff16905081600a60006101000a81548173ffffffffffffffffffffffffffffffffffffffff021916908373ffffffffffffffffffffffffffffffffffffffff1602179055508173ffffffffffffffffffffffffffffffffffffffff168173ffffffffffffffffffffffffffffffffffffffff167f8be0079c531659141344cd1fd0a4f28419497f9722a3daafe3b4186f6b6457e060405160405180910390a35050565b82805482825590600052602060002090810192821562000391579160200282015b82811115620003905782518290805190602001906200037f929190620003a4565b50916020019190600101906200035e565b5b509050620003a0919062000435565b5090565b828054620003b290620004c2565b90600052602060002090601f016020900481019282620003d6576000855562000422565b82601f10620003f157805160ff191683800117855562000422565b8280016001018555821562000422579182015b828111156200042157825182559160200191906001019062000404565b5b5090506200043191906200045d565b5090565b5b808211156200045957600081816200044f91906200047c565b5060010162000436565b5090565b5b80821115620004785760008160009055506001016200045e565b5090565b5080546200048a90620004c2565b6000825580601f106200049e5750620004bf565b601f016020900490600052602060002090810190620004be91906200045d565b5b50565b60006002820490506001821680620004db57607f821691505b60208210811415620004f257620004f1620004f8565b5b50919050565b7f4e487b7100000000000000000000000000000000000000000000000000000000600052602260045260246000fd5b61555c80620005376000396000f3fe608060405234801561001057600080fd5b506004361061018e5760003560e01c8063715018a6116100de578063b88d4fde11610097578063ca56febf11610071578063ca56febf14610498578063e13d175d146104b4578063e985e9c5146104d4578063f2fde38b146105045761018e565b8063b88d4fde14610430578063c43ff5c51461044c578063c87b56dd146104685761018e565b8063715018a61461037d57806387fbdf8d146103875780638da5cb5b146103a357806395d89b41146103c1578063a22cb465146103df578063b68972ea146103fb5761018e565b8063291dcd4a1161014b57806342842e0e1161012557806342842e0e146102d15780634f6ccce7146102ed5780636352211e1461031d57806370a082311461034d5761018e565b8063291dcd4a146102675780632abd9c9d146102835780632f745c59146102a15761018e565b806301ffc9a71461019357806306fdde03146101c3578063081812fc146101e1578063095ea7b31461021157806318160ddd1461022d57806323b872dd1461024b575b600080fd5b6101ad60048036038101906101a89190614016565b610520565b6040516101ba9190614691565b60405180910390f35b6101cb61059a565b6040516101d891906146ac565b60405180910390f35b6101fb60048036038101906101f691906140e7565b61062c565b604051610208919061462a565b60405180910390f35b61022b60048036038101906102269190613fda565b610672565b005b61023561078a565b6040516102429190614a13565b60405180910390f35b61026560048036038101906102609190613e98565b610797565b005b610281600480360381019061027c9190614110565b6107f7565b005b61028b611337565b60405161029891906146ac565b60405180910390f35b6102bb60048036038101906102b69190613fda565b61148f565b6040516102c89190614a13565b60405180910390f35b6102eb60048036038101906102e69190613e98565b611534565b005b610307600480360381019061030291906140e7565b611554565b6040516103149190614a13565b60405180910390f35b610337600480360381019061033291906140e7565b6115eb565b604051610344919061462a565b60405180910390f35b61036760048036038101906103629190613e33565b611672565b6040516103749190614a13565b60405180910390f35b61038561172a565b005b6103a1600480360381019061039c919061414c565b61173e565b005b6103ab6119b0565b6040516103b8919061462a565b60405180910390f35b6103c96119da565b6040516103d691906146ac565b60405180910390f35b6103f960048036038101906103f49190613f62565b611a6c565b005b610415600480360381019061041091906140e7565b611a82565b60405161042796959493929190614a2e565b60405180910390f35b61044a60048036038101906104459190613ee7565b611dc4565b005b61046660048036038101906104619190614068565b611e26565b005b610482600480360381019061047d91906140e7565b611fec565b60405161048f91906146ac565b60405180910390f35b6104b260048036038101906104ad9190613f9e565b612054565b005b6104bc6121ac565b6040516104cb939291906146ce565b60405180910390f35b6104ee60048036038101906104e99190613e5c565b612511565b6040516104fb9190614691565b60405180910390f35b61051e60048036038101906105199190613e33565b6125a5565b005b60007f780e9d63000000000000000000000000000000000000000000000000000000007bffffffffffffffffffffffffffffffffffffffffffffffffffffffff1916827bffffffffffffffffffffffffffffffffffffffffffffffffffffffff19161480610593575061059282612629565b5b9050919050565b6060600080546105a990614ccc565b80601f01602080910402602001604051908101604052809291908181526020018280546105d590614ccc565b80156106225780601f106105f757610100808354040283529160200191610622565b820191906000526020600020905b81548152906001019060200180831161060557829003601f168201915b5050505050905090565b60006106378261270b565b6004600083815260200190815260200160002060009054906101000a900473ffffffffffffffffffffffffffffffffffffffff169050919050565b600061067d826115eb565b90508073ffffffffffffffffffffffffffffffffffffffff168373ffffffffffffffffffffffffffffffffffffffff1614156106ee576040517f08c379a00000000000000000000000000000000000000000000000000000000081526004016106e590614973565b60405180910390fd5b8073ffffffffffffffffffffffffffffffffffffffff1661070d612756565b73ffffffffffffffffffffffffffffffffffffffff16148061073c575061073b81610736612756565b612511565b5b61077b576040517f08c379a000000000000000000000000000000000000000000000000000000000815260040161077290614993565b60405180910390fd5b610785838361275e565b505050565b6000600880549050905090565b6107a86107a2612756565b82612817565b6107e7576040517f08c379a00000000000000000000000000000000000000000000000000000000081526004016107de90614733565b60405180910390fd5b6107f28383836128ac565b505050565b6001600d60003373ffffffffffffffffffffffffffffffffffffffff1673ffffffffffffffffffffffffffffffffffffffff16815260200190815260200160002060009054906101000a900460ff16600381111561087e577f4e487b7100000000000000000000000000000000000000000000000000000000600052602160045260246000fd5b148061090e57506000600d60003373ffffffffffffffffffffffffffffffffffffffff1673ffffffffffffffffffffffffffffffffffffffff16815260200190815260200160002060009054906101000a900460ff16600381111561090c577f4e487b7100000000000000000000000000000000000000000000000000000000600052602160045260246000fd5b145b61094d576040517f08c379a000000000000000000000000000000000000000000000000000000000815260040161094490614913565b60405180910390fd5b6000600e60008481526020019081526020016000206040518060c00160405290816000820154815260200160018201805461098790614ccc565b80601f01602080910402602001604051908101604052809291908181526020018280546109b390614ccc565b8015610a005780601f106109d557610100808354040283529160200191610a00565b820191906000526020600020905b8154815290600101906020018083116109e357829003601f168201915b50505050508152602001600282018054610a1990614ccc565b80601f0160208091040260200160405190810160405280929190818152602001828054610a4590614ccc565b8015610a925780601f10610a6757610100808354040283529160200191610a92565b820191906000526020600020905b815481529060010190602001808311610a7557829003601f168201915b505050505081526020016003820160009054906101000a900460ff166002811115610ae6577f4e487b7100000000000000000000000000000000000000000000000000000000600052602160045260246000fd5b6002811115610b1e577f4e487b7100000000000000000000000000000000000000000000000000000000600052602160045260246000fd5b81526020016003820160019054906101000a900473ffffffffffffffffffffffffffffffffffffffff1673ffffffffffffffffffffffffffffffffffffffff1673ffffffffffffffffffffffffffffffffffffffff1681526020016004820154815250509050806080015173ffffffffffffffffffffffffffffffffffffffff163373ffffffffffffffffffffffffffffffffffffffff1614610bf6576040517f08c379a0000000000000000000000000000000000000000000000000000000008152600401610bed90614873565b60405180910390fd5b60006003811115610c30577f4e487b7100000000000000000000000000000000000000000000000000000000600052602160045260246000fd5b600d60003373ffffffffffffffffffffffffffffffffffffffff1673ffffffffffffffffffffffffffffffffffffffff16815260200190815260200160002060009054906101000a900460ff166003811115610cb5577f4e487b7100000000000000000000000000000000000000000000000000000000600052602160045260246000fd5b1415610ef35760016003811115610cf5577f4e487b7100000000000000000000000000000000000000000000000000000000600052602160045260246000fd5b600d60008473ffffffffffffffffffffffffffffffffffffffff1673ffffffffffffffffffffffffffffffffffffffff16815260200190815260200160002060009054906101000a900460ff166003811115610d7a577f4e487b7100000000000000000000000000000000000000000000000000000000600052602160045260246000fd5b14610dba576040517f08c379a0000000000000000000000000000000000000000000000000000000008152600401610db1906149d3565b60405180910390fd5b60006002811115610df4577f4e487b7100000000000000000000000000000000000000000000000000000000600052602160045260246000fd5b81606001516002811115610e31577f4e487b7100000000000000000000000000000000000000000000000000000000600052602160045260246000fd5b14610e71576040517f08c379a0000000000000000000000000000000000000000000000000000000008152600401610e6890614933565b60405180910390fd5b600181606001906002811115610eb0577f4e487b7100000000000000000000000000000000000000000000000000000000600052602160045260246000fd5b90816002811115610eea577f4e487b7100000000000000000000000000000000000000000000000000000000600052602160045260246000fd5b815250506111ed565b60016003811115610f2d577f4e487b7100000000000000000000000000000000000000000000000000000000600052602160045260246000fd5b600d60003373ffffffffffffffffffffffffffffffffffffffff1673ffffffffffffffffffffffffffffffffffffffff16815260200190815260200160002060009054906101000a900460ff166003811115610fb2577f4e487b7100000000000000000000000000000000000000000000000000000000600052602160045260246000fd5b14156111ec5760026003811115610ff2577f4e487b7100000000000000000000000000000000000000000000000000000000600052602160045260246000fd5b600d60008473ffffffffffffffffffffffffffffffffffffffff1673ffffffffffffffffffffffffffffffffffffffff16815260200190815260200160002060009054906101000a900460ff166003811115611077577f4e487b7100000000000000000000000000000000000000000000000000000000600052602160045260246000fd5b146110b7576040517f08c379a00000000000000000000000000000000000000000000000000000000081526004016110ae90614813565b60405180910390fd5b600160028111156110f1577f4e487b7100000000000000000000000000000000000000000000000000000000600052602160045260246000fd5b8160600151600281111561112e577f4e487b7100000000000000000000000000000000000000000000000000000000600052602160045260246000fd5b1461116e576040517f08c379a000000000000000000000000000000000000000000000000000000000815260040161116590614933565b60405180910390fd5b6002816060019060028111156111ad577f4e487b7100000000000000000000000000000000000000000000000000000000600052602160045260246000fd5b908160028111156111e7577f4e487b7100000000000000000000000000000000000000000000000000000000600052602160045260246000fd5b815250505b5b81816080019073ffffffffffffffffffffffffffffffffffffffff16908173ffffffffffffffffffffffffffffffffffffffff16815250506112303383856128ac565b80600e600085815260200190815260200160002060008201518160000155602082015181600101908051906020019061126a929190613c42565b506040820151816002019080519060200190611287929190613c42565b5060608201518160030160006101000a81548160ff021916908360028111156112d9577f4e487b7100000000000000000000000000000000000000000000000000000000600052602160045260246000fd5b021790555060808201518160030160016101000a81548173ffffffffffffffffffffffffffffffffffffffff021916908373ffffffffffffffffffffffffffffffffffffffff16021790555060a08201518160040155905050505050565b6060600b600d60003373ffffffffffffffffffffffffffffffffffffffff1673ffffffffffffffffffffffffffffffffffffffff16815260200190815260200160002060009054906101000a900460ff1660038111156113c0577f4e487b7100000000000000000000000000000000000000000000000000000000600052602160045260246000fd5b815481106113f7577f4e487b7100000000000000000000000000000000000000000000000000000000600052603260045260246000fd5b90600052602060002001805461140c90614ccc565b80601f016020809104026020016040519081016040528092919081815260200182805461143890614ccc565b80156114855780601f1061145a57610100808354040283529160200191611485565b820191906000526020600020905b81548152906001019060200180831161146857829003601f168201915b5050505050905090565b600061149a83611672565b82106114db576040517f08c379a00000000000000000000000000000000000000000000000000000000081526004016114d290614773565b60405180910390fd5b600660008473ffffffffffffffffffffffffffffffffffffffff1673ffffffffffffffffffffffffffffffffffffffff168152602001908152602001600020600083815260200190815260200160002054905092915050565b61154f83838360405180602001604052806000815250611dc4565b505050565b600061155e61078a565b821061159f576040517f08c379a0000000000000000000000000000000000000000000000000000000008152600401611596906149b3565b60405180910390fd5b600882815481106115d9577f4e487b7100000000000000000000000000000000000000000000000000000000600052603260045260246000fd5b90600052602060002001549050919050565b6000806115f783612ba6565b9050600073ffffffffffffffffffffffffffffffffffffffff168173ffffffffffffffffffffffffffffffffffffffff161415611669576040517f08c379a000000000000000000000000000000000000000000000000000000000815260040161166090614953565b60405180910390fd5b80915050919050565b60008073ffffffffffffffffffffffffffffffffffffffff168273ffffffffffffffffffffffffffffffffffffffff1614156116e3576040517f08c379a00000000000000000000000000000000000000000000000000000000081526004016116da90614893565b60405180910390fd5b600360008373ffffffffffffffffffffffffffffffffffffffff1673ffffffffffffffffffffffffffffffffffffffff168152602001908152602001600020549050919050565b611732612be3565b61173c6000612c61565b565b6000600d60003373ffffffffffffffffffffffffffffffffffffffff1673ffffffffffffffffffffffffffffffffffffffff16815260200190815260200160002060009054906101000a900460ff1660038111156117c5577f4e487b7100000000000000000000000000000000000000000000000000000000600052602160045260246000fd5b14611805576040517f08c379a00000000000000000000000000000000000000000000000000000000081526004016117fc90614753565b60405180910390fd5b60006040518060c001604052808681526020018581526020018481526020016000600281111561185e577f4e487b7100000000000000000000000000000000000000000000000000000000600052602160045260246000fd5b81526020013373ffffffffffffffffffffffffffffffffffffffff16815260200183815250905060008561189061078a565b61189a9190614b67565b90506118a63382612d27565b81600e60008381526020019081526020016000206000820151816000015560208201518160010190805190602001906118e0929190613c42565b5060408201518160020190805190602001906118fd929190613c42565b5060608201518160030160006101000a81548160ff0219169083600281111561194f577f4e487b7100000000000000000000000000000000000000000000000000000000600052602160045260246000fd5b021790555060808201518160030160016101000a81548173ffffffffffffffffffffffffffffffffffffffff021916908373ffffffffffffffffffffffffffffffffffffffff16021790555060a08201518160040155905050505050505050565b6000600a60009054906101000a900473ffffffffffffffffffffffffffffffffffffffff16905090565b6060600180546119e990614ccc565b80601f0160208091040260200160405190810160405280929190818152602001828054611a1590614ccc565b8015611a625780601f10611a3757610100808354040283529160200191611a62565b820191906000526020600020905b815481529060010190602001808311611a4557829003601f168201915b5050505050905090565b611a7e611a77612756565b8383612d45565b5050565b600060608060008060006001600d60003373ffffffffffffffffffffffffffffffffffffffff1673ffffffffffffffffffffffffffffffffffffffff16815260200190815260200160002060009054906101000a900460ff166003811115611b13577f4e487b7100000000000000000000000000000000000000000000000000000000600052602160045260246000fd5b1480611ba357506000600d60003373ffffffffffffffffffffffffffffffffffffffff1673ffffffffffffffffffffffffffffffffffffffff16815260200190815260200160002060009054906101000a900460ff166003811115611ba1577f4e487b7100000000000000000000000000000000000000000000000000000000600052602160045260246000fd5b145b611be2576040517f08c379a0000000000000000000000000000000000000000000000000000000008152600401611bd990614913565b60405180910390fd5b600e600088815260200190815260200160002060000154600e6000898152602001908152602001600020600101600e60008a8152602001908152602001600020600201600e60008b815260200190815260200160002060030160009054906101000a900460ff16600e60008c815260200190815260200160002060030160019054906101000a900473ffffffffffffffffffffffffffffffffffffffff16600e60008d815260200190815260200160002060040154848054611ca390614ccc565b80601f0160208091040260200160405190810160405280929190818152602001828054611ccf90614ccc565b8015611d1c5780601f10611cf157610100808354040283529160200191611d1c565b820191906000526020600020905b815481529060010190602001808311611cff57829003601f168201915b50505050509450838054611d2f90614ccc565b80601f0160208091040260200160405190810160405280929190818152602001828054611d5b90614ccc565b8015611da85780601f10611d7d57610100808354040283529160200191611da8565b820191906000526020600020905b815481529060010190602001808311611d8b57829003601f168201915b5050505050935095509550955095509550955091939550919395565b611dd5611dcf612756565b83612817565b611e14576040517f08c379a0000000000000000000000000000000000000000000000000000000008152600401611e0b90614733565b60405180910390fd5b611e2084848484612eb2565b50505050565b6001600d60003373ffffffffffffffffffffffffffffffffffffffff1673ffffffffffffffffffffffffffffffffffffffff16815260200190815260200160002060009054906101000a900460ff166003811115611ead577f4e487b7100000000000000000000000000000000000000000000000000000000600052602160045260246000fd5b14611eed576040517f08c379a0000000000000000000000000000000000000000000000000000000008152600401611ee4906148b3565b60405180910390fd5b600060405180606001604052808581526020018481526020013373ffffffffffffffffffffffffffffffffffffffff16815250905080600c60008473ffffffffffffffffffffffffffffffffffffffff1673ffffffffffffffffffffffffffffffffffffffff1681526020019081526020016000206000820151816000019080519060200190611f7e929190613c42565b506020820151816001019080519060200190611f9b929190613c42565b5060408201518160020160006101000a81548173ffffffffffffffffffffffffffffffffffffffff021916908373ffffffffffffffffffffffffffffffffffffffff16021790555090505050505050565b6060611ff78261270b565b6000612001612f0e565b90506000815111612021576040518060200160405280600081525061204c565b8061202b84612f25565b60405160200161203c929190614606565b6040516020818303038152906040525b915050919050565b6003600d60003373ffffffffffffffffffffffffffffffffffffffff1673ffffffffffffffffffffffffffffffffffffffff16815260200190815260200160002060009054906101000a900460ff1660038111156120db577f4e487b7100000000000000000000000000000000000000000000000000000000600052602160045260246000fd5b1461211b576040517f08c379a000000000000000000000000000000000000000000000000000000000815260040161211290614713565b60405180910390fd5b80600d60008473ffffffffffffffffffffffffffffffffffffffff1673ffffffffffffffffffffffffffffffffffffffff16815260200190815260200160002060006101000a81548160ff021916908360038111156121a3577f4e487b7100000000000000000000000000000000000000000000000000000000600052602160045260246000fd5b02179055505050565b60608060006001600d60003373ffffffffffffffffffffffffffffffffffffffff1673ffffffffffffffffffffffffffffffffffffffff16815260200190815260200160002060009054906101000a900460ff166003811115612238577f4e487b7100000000000000000000000000000000000000000000000000000000600052602160045260246000fd5b14806122c857506000600d60003373ffffffffffffffffffffffffffffffffffffffff1673ffffffffffffffffffffffffffffffffffffffff16815260200190815260200160002060009054906101000a900460ff1660038111156122c6577f4e487b7100000000000000000000000000000000000000000000000000000000600052602160045260246000fd5b145b612307576040517f08c379a00000000000000000000000000000000000000000000000000000000081526004016122fe90614913565b60405180910390fd5b600c60003373ffffffffffffffffffffffffffffffffffffffff1673ffffffffffffffffffffffffffffffffffffffff168152602001908152602001600020600001600c60003373ffffffffffffffffffffffffffffffffffffffff1673ffffffffffffffffffffffffffffffffffffffff168152602001908152602001600020600101600c60003373ffffffffffffffffffffffffffffffffffffffff1673ffffffffffffffffffffffffffffffffffffffff16815260200190815260200160002060020160009054906101000a900473ffffffffffffffffffffffffffffffffffffffff168280546123fa90614ccc565b80601f016020809104026020016040519081016040528092919081815260200182805461242690614ccc565b80156124735780601f1061244857610100808354040283529160200191612473565b820191906000526020600020905b81548152906001019060200180831161245657829003601f168201915b5050505050925081805461248690614ccc565b80601f01602080910402602001604051908101604052809291908181526020018280546124b290614ccc565b80156124ff5780601f106124d4576101008083540402835291602001916124ff565b820191906000526020600020905b8154815290600101906020018083116124e257829003601f168201915b50505050509150925092509250909192565b6000600560008473ffffffffffffffffffffffffffffffffffffffff1673ffffffffffffffffffffffffffffffffffffffff16815260200190815260200160002060008373ffffffffffffffffffffffffffffffffffffffff1673ffffffffffffffffffffffffffffffffffffffff16815260200190815260200160002060009054906101000a900460ff16905092915050565b6125ad612be3565b600073ffffffffffffffffffffffffffffffffffffffff168173ffffffffffffffffffffffffffffffffffffffff16141561261d576040517f08c379a0000000000000000000000000000000000000000000000000000000008152600401612614906147b3565b60405180910390fd5b61262681612c61565b50565b60007f80ac58cd000000000000000000000000000000000000000000000000000000007bffffffffffffffffffffffffffffffffffffffffffffffffffffffff1916827bffffffffffffffffffffffffffffffffffffffffffffffffffffffff191614806126f457507f5b5e139f000000000000000000000000000000000000000000000000000000007bffffffffffffffffffffffffffffffffffffffffffffffffffffffff1916827bffffffffffffffffffffffffffffffffffffffffffffffffffffffff1916145b80612704575061270382613049565b5b9050919050565b612714816130b3565b612753576040517f08c379a000000000000000000000000000000000000000000000000000000000815260040161274a90614953565b60405180910390fd5b50565b600033905090565b816004600083815260200190815260200160002060006101000a81548173ffffffffffffffffffffffffffffffffffffffff021916908373ffffffffffffffffffffffffffffffffffffffff160217905550808273ffffffffffffffffffffffffffffffffffffffff166127d1836115eb565b73ffffffffffffffffffffffffffffffffffffffff167f8c5be1e5ebec7d5bd14f71427d1e84f3dd0314c0f7b2291e5b200ac8c7c3b92560405160405180910390a45050565b600080612823836115eb565b90508073ffffffffffffffffffffffffffffffffffffffff168473ffffffffffffffffffffffffffffffffffffffff16148061286557506128648185612511565b5b806128a357508373ffffffffffffffffffffffffffffffffffffffff1661288b8461062c565b73ffffffffffffffffffffffffffffffffffffffff16145b91505092915050565b8273ffffffffffffffffffffffffffffffffffffffff166128cc826115eb565b73ffffffffffffffffffffffffffffffffffffffff1614612922576040517f08c379a0000000000000000000000000000000000000000000000000000000008152600401612919906147d3565b60405180910390fd5b600073ffffffffffffffffffffffffffffffffffffffff168273ffffffffffffffffffffffffffffffffffffffff161415612992576040517f08c379a000000000000000000000000000000000000000000000000000000000815260040161298990614833565b60405180910390fd5b61299f83838360016130f4565b8273ffffffffffffffffffffffffffffffffffffffff166129bf826115eb565b73ffffffffffffffffffffffffffffffffffffffff1614612a15576040517f08c379a0000000000000000000000000000000000000000000000000000000008152600401612a0c906147d3565b60405180910390fd5b6004600082815260200190815260200160002060006101000a81549073ffffffffffffffffffffffffffffffffffffffff02191690556001600360008573ffffffffffffffffffffffffffffffffffffffff1673ffffffffffffffffffffffffffffffffffffffff168152602001908152602001600020600082825403925050819055506001600360008473ffffffffffffffffffffffffffffffffffffffff1673ffffffffffffffffffffffffffffffffffffffff16815260200190815260200160002060008282540192505081905550816002600083815260200190815260200160002060006101000a81548173ffffffffffffffffffffffffffffffffffffffff021916908373ffffffffffffffffffffffffffffffffffffffff160217905550808273ffffffffffffffffffffffffffffffffffffffff168473ffffffffffffffffffffffffffffffffffffffff167fddf252ad1be2c89b69c2b068fc378daa952ba7f163c4a11628f55a4df523b3ef60405160405180910390a4612ba18383836001613254565b505050565b60006002600083815260200190815260200160002060009054906101000a900473ffffffffffffffffffffffffffffffffffffffff169050919050565b612beb612756565b73ffffffffffffffffffffffffffffffffffffffff16612c096119b0565b73ffffffffffffffffffffffffffffffffffffffff1614612c5f576040517f08c379a0000000000000000000000000000000000000000000000000000000008152600401612c56906148f3565b60405180910390fd5b565b6000600a60009054906101000a900473ffffffffffffffffffffffffffffffffffffffff16905081600a60006101000a81548173ffffffffffffffffffffffffffffffffffffffff021916908373ffffffffffffffffffffffffffffffffffffffff1602179055508173ffffffffffffffffffffffffffffffffffffffff168173ffffffffffffffffffffffffffffffffffffffff167f8be0079c531659141344cd1fd0a4f28419497f9722a3daafe3b4186f6b6457e060405160405180910390a35050565b612d4182826040518060200160405280600081525061325a565b5050565b8173ffffffffffffffffffffffffffffffffffffffff168373ffffffffffffffffffffffffffffffffffffffff161415612db4576040517f08c379a0000000000000000000000000000000000000000000000000000000008152600401612dab90614853565b60405180910390fd5b80600560008573ffffffffffffffffffffffffffffffffffffffff1673ffffffffffffffffffffffffffffffffffffffff16815260200190815260200160002060008473ffffffffffffffffffffffffffffffffffffffff1673ffffffffffffffffffffffffffffffffffffffff16815260200190815260200160002060006101000a81548160ff0219169083151502179055508173ffffffffffffffffffffffffffffffffffffffff168373ffffffffffffffffffffffffffffffffffffffff167f17307eab39ab6107e8899845ad3d59bd9653f200f220920489ca2b5937696c3183604051612ea59190614691565b60405180910390a3505050565b612ebd8484846128ac565b612ec9848484846132b5565b612f08576040517f08c379a0000000000000000000000000000000000000000000000000000000008152600401612eff90614793565b60405180910390fd5b50505050565b606060405180602001604052806000815250905090565b606060006001612f348461344c565b01905060008167ffffffffffffffff811115612f79577f4e487b7100000000000000000000000000000000000000000000000000000000600052604160045260246000fd5b6040519080825280601f01601f191660200182016040528015612fab5781602001600182028036833780820191505090505b509050600082602001820190505b60011561303e578080600190039150507f3031323334353637383961626364656600000000000000000000000000000000600a86061a8153600a8581613028577f4e487b7100000000000000000000000000000000000000000000000000000000600052601260045260246000fd5b04945060008514156130395761303e565b612fb9565b819350505050919050565b60007f01ffc9a7000000000000000000000000000000000000000000000000000000007bffffffffffffffffffffffffffffffffffffffffffffffffffffffff1916827bffffffffffffffffffffffffffffffffffffffffffffffffffffffff1916149050919050565b60008073ffffffffffffffffffffffffffffffffffffffff166130d583612ba6565b73ffffffffffffffffffffffffffffffffffffffff1614159050919050565b61310084848484613683565b6001811115613144576040517f08c379a000000000000000000000000000000000000000000000000000000000815260040161313b906149f3565b60405180910390fd5b6000829050600073ffffffffffffffffffffffffffffffffffffffff168573ffffffffffffffffffffffffffffffffffffffff16141561318c5761318781613689565b6131cb565b8373ffffffffffffffffffffffffffffffffffffffff168573ffffffffffffffffffffffffffffffffffffffff16146131ca576131c985826136d2565b5b5b600073ffffffffffffffffffffffffffffffffffffffff168473ffffffffffffffffffffffffffffffffffffffff16141561320e576132098161383f565b61324d565b8473ffffffffffffffffffffffffffffffffffffffff168473ffffffffffffffffffffffffffffffffffffffff161461324c5761324b8482613982565b5b5b5050505050565b50505050565b6132648383613a01565b61327160008484846132b5565b6132b0576040517f08c379a00000000000000000000000000000000000000000000000000000000081526004016132a790614793565b60405180910390fd5b505050565b60006132d68473ffffffffffffffffffffffffffffffffffffffff16613c1f565b1561343f578373ffffffffffffffffffffffffffffffffffffffff1663150b7a026132ff612756565b8786866040518563ffffffff1660e01b81526004016133219493929190614645565b602060405180830381600087803b15801561333b57600080fd5b505af192505050801561336c57506040513d601f19601f82011682018060405250810190613369919061403f565b60015b6133ef573d806000811461339c576040519150601f19603f3d011682016040523d82523d6000602084013e6133a1565b606091505b506000815114156133e7576040517f08c379a00000000000000000000000000000000000000000000000000000000081526004016133de90614793565b60405180910390fd5b805181602001fd5b63150b7a0260e01b7bffffffffffffffffffffffffffffffffffffffffffffffffffffffff1916817bffffffffffffffffffffffffffffffffffffffffffffffffffffffff191614915050613444565b600190505b949350505050565b600080600090507a184f03e93ff9f4daa797ed6e38ed64bf6a1f01000000000000000083106134d0577a184f03e93ff9f4daa797ed6e38ed64bf6a1f01000000000000000083816134c6577f4e487b7100000000000000000000000000000000000000000000000000000000600052601260045260246000fd5b0492506040810190505b6d04ee2d6d415b85acef81000000008310613533576d04ee2d6d415b85acef81000000008381613529577f4e487b7100000000000000000000000000000000000000000000000000000000600052601260045260246000fd5b0492506020810190505b662386f26fc10000831061358857662386f26fc10000838161357e577f4e487b7100000000000000000000000000000000000000000000000000000000600052601260045260246000fd5b0492506010810190505b6305f5e10083106135d7576305f5e10083816135cd577f4e487b7100000000000000000000000000000000000000000000000000000000600052601260045260246000fd5b0492506008810190505b6127108310613622576127108381613618577f4e487b7100000000000000000000000000000000000000000000000000000000600052601260045260246000fd5b0492506004810190505b6064831061366b5760648381613661577f4e487b7100000000000000000000000000000000000000000000000000000000600052601260045260246000fd5b0492506002810190505b600a831061367a576001810190505b80915050919050565b50505050565b6008805490506009600083815260200190815260200160002081905550600881908060018154018082558091505060019003906000526020600020016000909190919091505550565b600060016136df84611672565b6136e99190614bbd565b90506000600760008481526020019081526020016000205490508181146137ce576000600660008673ffffffffffffffffffffffffffffffffffffffff1673ffffffffffffffffffffffffffffffffffffffff168152602001908152602001600020600084815260200190815260200160002054905080600660008773ffffffffffffffffffffffffffffffffffffffff1673ffffffffffffffffffffffffffffffffffffffff168152602001908152602001600020600084815260200190815260200160002081905550816007600083815260200190815260200160002081905550505b6007600084815260200190815260200160002060009055600660008573ffffffffffffffffffffffffffffffffffffffff1673ffffffffffffffffffffffffffffffffffffffff16815260200190815260200160002060008381526020019081526020016000206000905550505050565b600060016008805490506138539190614bbd565b90506000600960008481526020019081526020016000205490506000600883815481106138a9577f4e487b7100000000000000000000000000000000000000000000000000000000600052603260045260246000fd5b9060005260206000200154905080600883815481106138f1577f4e487b7100000000000000000000000000000000000000000000000000000000600052603260045260246000fd5b906000526020600020018190555081600960008381526020019081526020016000208190555060096000858152602001908152602001600020600090556008805480613966577f4e487b7100000000000000000000000000000000000000000000000000000000600052603160045260246000fd5b6001900381819060005260206000200160009055905550505050565b600061398d83611672565b905081600660008573ffffffffffffffffffffffffffffffffffffffff1673ffffffffffffffffffffffffffffffffffffffff168152602001908152602001600020600083815260200190815260200160002081905550806007600084815260200190815260200160002081905550505050565b600073ffffffffffffffffffffffffffffffffffffffff168273ffffffffffffffffffffffffffffffffffffffff161415613a71576040517f08c379a0000000000000000000000000000000000000000000000000000000008152600401613a68906148d3565b60405180910390fd5b613a7a816130b3565b15613aba576040517f08c379a0000000000000000000000000000000000000000000000000000000008152600401613ab1906147f3565b60405180910390fd5b613ac86000838360016130f4565b613ad1816130b3565b15613b11576040517f08c379a0000000000000000000000000000000000000000000000000000000008152600401613b08906147f3565b60405180910390fd5b6001600360008473ffffffffffffffffffffffffffffffffffffffff1673ffffffffffffffffffffffffffffffffffffffff16815260200190815260200160002060008282540192505081905550816002600083815260200190815260200160002060006101000a81548173ffffffffffffffffffffffffffffffffffffffff021916908373ffffffffffffffffffffffffffffffffffffffff160217905550808273ffffffffffffffffffffffffffffffffffffffff16600073ffffffffffffffffffffffffffffffffffffffff167fddf252ad1be2c89b69c2b068fc378daa952ba7f163c4a11628f55a4df523b3ef60405160405180910390a4613c1b600083836001613254565b5050565b6000808273ffffffffffffffffffffffffffffffffffffffff163b119050919050565b828054613c4e90614ccc565b90600052602060002090601f016020900481019282613c705760008555613cb7565b82601f10613c8957805160ff1916838001178555613cb7565b82800160010185558215613cb7579182015b82811115613cb6578251825591602001919060010190613c9b565b5b509050613cc49190613cc8565b5090565b5b80821115613ce1576000816000905550600101613cc9565b5090565b6000613cf8613cf384614ac2565b614a9d565b905082815260208101848484011115613d1057600080fd5b613d1b848285614c8a565b509392505050565b6000613d36613d3184614af3565b614a9d565b905082815260208101848484011115613d4e57600080fd5b613d59848285614c8a565b509392505050565b600081359050613d70816154ba565b92915050565b600081359050613d85816154d1565b92915050565b600081359050613d9a816154e8565b92915050565b600081519050613daf816154e8565b92915050565b600082601f830112613dc657600080fd5b8135613dd6848260208601613ce5565b91505092915050565b600081359050613dee816154ff565b92915050565b600082601f830112613e0557600080fd5b8135613e15848260208601613d23565b91505092915050565b600081359050613e2d8161550f565b92915050565b600060208284031215613e4557600080fd5b6000613e5384828501613d61565b91505092915050565b60008060408385031215613e6f57600080fd5b6000613e7d85828601613d61565b9250506020613e8e85828601613d61565b9150509250929050565b600080600060608486031215613ead57600080fd5b6000613ebb86828701613d61565b9350506020613ecc86828701613d61565b9250506040613edd86828701613e1e565b9150509250925092565b60008060008060808587031215613efd57600080fd5b6000613f0b87828801613d61565b9450506020613f1c87828801613d61565b9350506040613f2d87828801613e1e565b925050606085013567ffffffffffffffff811115613f4a57600080fd5b613f5687828801613db5565b91505092959194509250565b60008060408385031215613f7557600080fd5b6000613f8385828601613d61565b9250506020613f9485828601613d76565b9150509250929050565b60008060408385031215613fb157600080fd5b6000613fbf85828601613d61565b9250506020613fd085828601613ddf565b9150509250929050565b60008060408385031215613fed57600080fd5b6000613ffb85828601613d61565b925050602061400c85828601613e1e565b9150509250929050565b60006020828403121561402857600080fd5b600061403684828501613d8b565b91505092915050565b60006020828403121561405157600080fd5b600061405f84828501613da0565b91505092915050565b60008060006060848603121561407d57600080fd5b600084013567ffffffffffffffff81111561409757600080fd5b6140a386828701613df4565b935050602084013567ffffffffffffffff8111156140c057600080fd5b6140cc86828701613df4565b92505060406140dd86828701613d61565b9150509250925092565b6000602082840312156140f957600080fd5b600061410784828501613e1e565b91505092915050565b6000806040838503121561412357600080fd5b600061413185828601613e1e565b925050602061414285828601613d61565b9150509250929050565b6000806000806080858703121561416257600080fd5b600061417087828801613e1e565b945050602085013567ffffffffffffffff81111561418d57600080fd5b61419987828801613df4565b935050604085013567ffffffffffffffff8111156141b657600080fd5b6141c287828801613df4565b92505060606141d387828801613e1e565b91505092959194509250565b6141e881614bf1565b82525050565b6141f781614c03565b82525050565b600061420882614b24565b6142128185614b3a565b9350614222818560208601614c99565b61422b81614deb565b840191505092915050565b61423f81614c78565b82525050565b600061425082614b2f565b61425a8185614b4b565b935061426a818560208601614c99565b61427381614deb565b840191505092915050565b600061428982614b2f565b6142938185614b5c565b93506142a3818560208601614c99565b80840191505092915050565b60006142bc602683614b4b565b91506142c782614dfc565b604082019050919050565b60006142df602d83614b4b565b91506142ea82614e4b565b604082019050919050565b6000614302602d83614b4b565b915061430d82614e9a565b604082019050919050565b6000614325602b83614b4b565b915061433082614ee9565b604082019050919050565b6000614348603283614b4b565b915061435382614f38565b604082019050919050565b600061436b602683614b4b565b915061437682614f87565b604082019050919050565b600061438e602583614b4b565b915061439982614fd6565b604082019050919050565b60006143b1601c83614b4b565b91506143bc82615025565b602082019050919050565b60006143d4603183614b4b565b91506143df8261504e565b604082019050919050565b60006143f7602483614b4b565b91506144028261509d565b604082019050919050565b600061441a601983614b4b565b9150614425826150ec565b602082019050919050565b600061443d604083614b4b565b915061444882615115565b604082019050919050565b6000614460602983614b4b565b915061446b82615164565b604082019050919050565b6000614483602b83614b4b565b915061448e826151b3565b604082019050919050565b60006144a6602083614b4b565b91506144b182615202565b602082019050919050565b60006144c9602083614b4b565b91506144d48261522b565b602082019050919050565b60006144ec603d83614b4b565b91506144f782615254565b604082019050919050565b600061450f602683614b4b565b915061451a826152a3565b604082019050919050565b6000614532601883614b4b565b915061453d826152f2565b602082019050919050565b6000614555602183614b4b565b91506145608261531b565b604082019050919050565b6000614578603d83614b4b565b91506145838261536a565b604082019050919050565b600061459b602c83614b4b565b91506145a6826153b9565b604082019050919050565b60006145be603983614b4b565b91506145c982615408565b604082019050919050565b60006145e1603583614b4b565b91506145ec82615457565b604082019050919050565b61460081614c6e565b82525050565b6000614612828561427e565b915061461e828461427e565b91508190509392505050565b600060208201905061463f60008301846141df565b92915050565b600060808201905061465a60008301876141df565b61466760208301866141df565b61467460408301856145f7565b818103606083015261468681846141fd565b905095945050505050565b60006020820190506146a660008301846141ee565b92915050565b600060208201905081810360008301526146c68184614245565b905092915050565b600060608201905081810360008301526146e88186614245565b905081810360208301526146fc8185614245565b905061470b60408301846141df565b949350505050565b6000602082019050818103600083015261472c816142af565b9050919050565b6000602082019050818103600083015261474c816142d2565b9050919050565b6000602082019050818103600083015261476c816142f5565b9050919050565b6000602082019050818103600083015261478c81614318565b9050919050565b600060208201905081810360008301526147ac8161433b565b9050919050565b600060208201905081810360008301526147cc8161435e565b9050919050565b600060208201905081810360008301526147ec81614381565b9050919050565b6000602082019050818103600083015261480c816143a4565b9050919050565b6000602082019050818103600083015261482c816143c7565b9050919050565b6000602082019050818103600083015261484c816143ea565b9050919050565b6000602082019050818103600083015261486c8161440d565b9050919050565b6000602082019050818103600083015261488c81614430565b9050919050565b600060208201905081810360008301526148ac81614453565b9050919050565b600060208201905081810360008301526148cc81614476565b9050919050565b600060208201905081810360008301526148ec81614499565b9050919050565b6000602082019050818103600083015261490c816144bc565b9050919050565b6000602082019050818103600083015261492c816144df565b9050919050565b6000602082019050818103600083015261494c81614502565b9050919050565b6000602082019050818103600083015261496c81614525565b9050919050565b6000602082019050818103600083015261498c81614548565b9050919050565b600060208201905081810360008301526149ac8161456b565b9050919050565b600060208201905081810360008301526149cc8161458e565b9050919050565b600060208201905081810360008301526149ec816145b1565b9050919050565b60006020820190508181036000830152614a0c816145d4565b9050919050565b6000602082019050614a2860008301846145f7565b92915050565b600060c082019050614a4360008301896145f7565b8181036020830152614a558188614245565b90508181036040830152614a698187614245565b9050614a786060830186614236565b614a8560808301856141df565b614a9260a08301846145f7565b979650505050505050565b6000614aa7614ab8565b9050614ab38282614cfe565b919050565b6000604051905090565b600067ffffffffffffffff821115614add57614adc614dbc565b5b614ae682614deb565b9050602081019050919050565b600067ffffffffffffffff821115614b0e57614b0d614dbc565b5b614b1782614deb565b9050602081019050919050565b600081519050919050565b600081519050919050565b600082825260208201905092915050565b600082825260208201905092915050565b600081905092915050565b6000614b7282614c6e565b9150614b7d83614c6e565b9250827fffffffffffffffffffffffffffffffffffffffffffffffffffffffffffffffff03821115614bb257614bb1614d2f565b5b828201905092915050565b6000614bc882614c6e565b9150614bd383614c6e565b925082821015614be657614be5614d2f565b5b828203905092915050565b6000614bfc82614c4e565b9050919050565b60008115159050919050565b60007fffffffff0000000000000000000000000000000000000000000000000000000082169050919050565b6000819050614c49826154a6565b919050565b600073ffffffffffffffffffffffffffffffffffffffff82169050919050565b6000819050919050565b6000614c8382614c3b565b9050919050565b82818337600083830152505050565b60005b83811015614cb7578082015181840152602081019050614c9c565b83811115614cc6576000848401525b50505050565b60006002820490506001821680614ce457607f821691505b60208210811415614cf857614cf7614d8d565b5b50919050565b614d0782614deb565b810181811067ffffffffffffffff82111715614d2657614d25614dbc565b5b80604052505050565b7f4e487b7100000000000000000000000000000000000000000000000000000000600052601160045260246000fd5b7f4e487b7100000000000000000000000000000000000000000000000000000000600052602160045260246000fd5b7f4e487b7100000000000000000000000000000000000000000000000000000000600052602260045260246000fd5b7f4e487b7100000000000000000000000000000000000000000000000000000000600052604160045260246000fd5b6000601f19601f8301169050919050565b7f4f6e6c792061646d696e732063616e20706572666f726d2074686973206f706560008201527f726174696f6e0000000000000000000000000000000000000000000000000000602082015250565b7f4552433732313a2063616c6c6572206973206e6f7420746f6b656e206f776e6560008201527f72206f7220617070726f76656400000000000000000000000000000000000000602082015250565b7f4f6e6c79206d616e756661637475726572732063616e20706572666f726d207460008201527f686973206f7065726174696f6e00000000000000000000000000000000000000602082015250565b7f455243373231456e756d657261626c653a206f776e657220696e646578206f7560008201527f74206f6620626f756e6473000000000000000000000000000000000000000000602082015250565b7f4552433732313a207472616e7366657220746f206e6f6e20455243373231526560008201527f63656976657220696d706c656d656e7465720000000000000000000000000000602082015250565b7f4f776e61626c653a206e6577206f776e657220697320746865207a65726f206160008201527f6464726573730000000000000000000000000000000000000000000000000000602082015250565b7f4552433732313a207472616e736665722066726f6d20696e636f72726563742060008201527f6f776e6572000000000000000000000000000000000000000000000000000000602082015250565b7f4552433732313a20746f6b656e20616c7265616479206d696e74656400000000600082015250565b7f506861726d6163697374732063616e206f6e6c79207472616e7366657220736860008201527f69706d656e747320746f20627579657273000000000000000000000000000000602082015250565b7f4552433732313a207472616e7366657220746f20746865207a65726f2061646460008201527f7265737300000000000000000000000000000000000000000000000000000000602082015250565b7f4552433732313a20617070726f766520746f2063616c6c657200000000000000600082015250565b7f4f6e6c79207468652063757272656e74206f776e6572206f662074686520736860008201527f69706d656e742063616e207472616e736665722074686520736869706d656e74602082015250565b7f4552433732313a2061646472657373207a65726f206973206e6f74206120766160008201527f6c6964206f776e65720000000000000000000000000000000000000000000000602082015250565b7f4f6e6c7920706861726d6163697374732063616e20706572666f726d2074686960008201527f73206f7065726174696f6e000000000000000000000000000000000000000000602082015250565b7f4552433732313a206d696e7420746f20746865207a65726f2061646472657373600082015250565b7f4f776e61626c653a2063616c6c6572206973206e6f7420746865206f776e6572600082015250565b7f456974686572206d616e75666163747572657273206f72207068616d6163697360008201527f74732063616e20706572666f726d2074686973206f7065726174696f6e000000602082015250565b7f536869706d656e74206973206e6f7420617661696c61626c6520666f7220736860008201527f697070696e670000000000000000000000000000000000000000000000000000602082015250565b7f4552433732313a20696e76616c696420746f6b656e2049440000000000000000600082015250565b7f4552433732313a20617070726f76616c20746f2063757272656e74206f776e6560008201527f7200000000000000000000000000000000000000000000000000000000000000602082015250565b7f4552433732313a20617070726f76652063616c6c6572206973206e6f7420746f60008201527f6b656e206f776e6572206f7220617070726f76656420666f7220616c6c000000602082015250565b7f455243373231456e756d657261626c653a20676c6f62616c20696e646578206f60008201527f7574206f6620626f756e64730000000000000000000000000000000000000000602082015250565b7f4d616e756661637475726572732063616e206f6e6c79207472616e736665722060008201527f736869706d656e747320746f2020706861726d61636973747300000000000000602082015250565b7f455243373231456e756d657261626c653a20636f6e736563757469766520747260008201527f616e7366657273206e6f7420737570706f727465640000000000000000000000602082015250565b600381106154b7576154b6614d5e565b5b50565b6154c381614bf1565b81146154ce57600080fd5b50565b6154da81614c03565b81146154e557600080fd5b50565b6154f181614c0f565b81146154fc57600080fd5b50565b6004811061550c57600080fd5b50565b61551881614c6e565b811461552357600080fd5b5056fea26469706673582212200e2ee9c9d4bd5f164d00449845de8e9768198d789fe566579f4d94d4296b56e364736f6c63430008010033",
  "immutableReferences": {},
  "source": "// SPDX-License-Identifier: GPL-3.0\npragma solidity ^0.8.0;\n\nimport \"@openzeppelin/contracts/token/ERC721/extensions/ERC721Enumerable.sol\";\nimport \"@openzeppelin/contracts/token/ERC721/extensions/IERC721Metadata.sol\";\nimport \"@openzeppelin/contracts/access/Ownable.sol\";\n\ncontract PharmaSupplyChain is ERC721Enumerable, Ownable {\n    //define the different roles in the supply chain\n    enum role {\n        Manufacturer,\n        Pharmacist,\n        Buyer,\n        Admin\n    }\n\n    //define an array or string for all types of roles \n    string[] roleNames = [\"Manufacturer\", \"Pharmacist\", \"Buyer\", \"Admin\"];\n\n    //define the state of each shipment\n    enum shipmentState {\n        ReadyToShip,\n        ReceivedByPharmacist,\n        ReceivedByBuyer\n    }\n\n    //define a struct to represent a shipment\n    struct shipment {\n        uint256 batchNumber;\n        string nameOfItem;\n        string expiryDate;\n        shipmentState state;\n        address owner;\n        uint256 price;\n    }\n\n    //define a struct for a purchase order\n    struct purchaseOrder {\n        string nameOfItem;\n        string descriptionOfOrder;\n        address requester;\n    }\n\n    //define a mapping from manufacturer address to purchase order\n    mapping(address => purchaseOrder) purchaseOrders;\n\n    //define a mapping from user address to user role\n    mapping(address => role) users;\n\n    //define a mapping from token ID to medicine\n    mapping(uint256 => shipment) private shipments;\n\n    //event emitted when a shipment is created\n    event shipmentCreated(uint256 tokenId);\n\n    //event emitted when a shipment is transferred to a new owner\n    event shipmentTransferred(uint256 tokenId, address newOwner);\n\n    constructor() ERC721(\"PharmaSupplyChainSolution\", \"PSCS\") {\n        users[msg.sender] = role.Admin;\n    }\n\n    //modifier to check if invoker is only manufacturer based on its role\n    modifier onlyManufacturer() {\n        require(\n            uint256(users[msg.sender]) == 0,\n            \"Only manufacturers can perform this operation\"\n        );\n        _;\n    }\n\n    //modifier to check if invoker is only pharmacist based on its role\n    modifier onlyPharmacist() {\n        require(\n            uint256(users[msg.sender]) == 1,\n            \"Only pharmacists can perform this operation\"\n        );\n        _;\n    }\n\n    //modifier to check if invoker is either manufacturer or pharmacist based on its role\n    modifier onlyManufacturerOrPharmacist() {\n        require(\n            (uint256(users[msg.sender]) == 1) ||\n                (uint256(users[msg.sender]) == 0),\n            \"Either manufacturers or phamacists can perform this operation\"\n        );\n        _;\n    }\n\n    //modifier to check if invoker is only admin based on its role\n    modifier onlyAdmin() {\n        require(\n            uint256(users[msg.sender]) == 3,\n            \"Only admins can perform this operation\"\n        );\n        _;\n    }\n\n    //function to onboard users into our pharma supply chain solution and assign them roles.\n    function onBoardUser(address addrOfUser, role roleOfUser) public onlyAdmin {\n        users[addrOfUser] = roleOfUser;\n    }\n\n    //function to view user role\n    function viewRole() public view returns (string memory) {\n        return roleNames[uint256(users[msg.sender])];\n    }\n\n    //function to create a purchase order for a particular batch of medicine\n    function createPurchaseOrder(\n        string memory nameOfItem,\n        string memory description,\n        address manufacturer\n    ) public onlyPharmacist {\n        purchaseOrder memory po = purchaseOrder(\n            nameOfItem,\n            description,\n            msg.sender\n        );\n        purchaseOrders[manufacturer] = po;\n    }\n\n    //function to view purchase orders created by pharmacist\n    function viewPurchaseOrders()\n        public\n        view\n        onlyManufacturerOrPharmacist\n        returns (\n            string memory,\n            string memory,\n            address\n        )\n    {\n        return (\n            purchaseOrders[msg.sender].nameOfItem,\n            purchaseOrders[msg.sender].descriptionOfOrder,\n            purchaseOrders[msg.sender].requester\n        );\n    }\n\n    //function to create a shipment based on a purchase order used by manufacturer\n    function createShipment(\n        uint256 batchNumber,\n        string memory nameOfItem,\n        string memory expiryDate,\n        uint256 price\n    ) public onlyManufacturer {\n        shipment memory newShipment = shipment(\n            batchNumber,\n            nameOfItem,\n            expiryDate,\n            shipmentState.ReadyToShip,\n            msg.sender,\n            price\n        );\n        uint256 tokenId = totalSupply() + batchNumber;\n        _safeMint(msg.sender, tokenId);\n        shipments[tokenId] = newShipment;\n    }\n\n    //function to view shipments created by the manufacturer\n    function viewShipment(uint256 tokenId)\n        public\n        view\n        onlyManufacturerOrPharmacist\n        returns (\n            uint256,\n            string memory,\n            string memory,\n            shipmentState,\n            address,\n            uint256\n        )\n    {\n        return (\n            shipments[tokenId].batchNumber,\n            shipments[tokenId].nameOfItem,\n            shipments[tokenId].expiryDate,\n            shipments[tokenId].state,\n            shipments[tokenId].owner,\n            shipments[tokenId].price\n        );\n    }\n\n    //function to transfer shipment from manufacturer or pharmacist to phramacist or buyer respectively\n    function transferShipment(uint256 tokenId, address newOwner)\n        public\n        onlyManufacturerOrPharmacist\n    {\n        shipment memory shipmentToTransfer = shipments[tokenId];\n        require(\n            msg.sender == shipmentToTransfer.owner,\n            \"Only the current owner of the shipment can transfer the shipment\"\n        );\n        if (users[msg.sender] == role.Manufacturer) {\n            require(\n                users[newOwner] == role.Pharmacist,\n                \"Manufacturers can only transfer shipments to  pharmacists\"\n            );\n            require(\n                shipmentToTransfer.state == shipmentState.ReadyToShip,\n                \"Shipment is not available for shipping\"\n            );\n            shipmentToTransfer.state = shipmentState.ReceivedByPharmacist;\n        } else if (users[msg.sender] == role.Pharmacist) {\n            require(\n                users[newOwner] == role.Buyer,\n                \"Pharmacists can only transfer shipments to buyers\"\n            );\n            require(\n                shipmentToTransfer.state == shipmentState.ReceivedByPharmacist,\n                \"Shipment is not available for shipping\"\n            );\n            shipmentToTransfer.state = shipmentState.ReceivedByBuyer;\n        }\n        shipmentToTransfer.owner = newOwner;\n        _transfer(msg.sender, newOwner, tokenId);\n        shipments[tokenId] = shipmentToTransfer;\n    }\n}\n",
  "sourcePath": "/home/kshitij/Downloads/pharma-node/PharmaSC-Dapp/PharmaSC-contract/contracts/PharmaSupplyChain.sol",
  "compiler": {
    "name": "solc",
    "version": "0.8.1+commit.df193b15.Emscripten.clang"
  },
  "schemaVersion": "3.4.13",
  "updatedAt": "2023-04-22T15:32:57.039Z",
  "networkType": "ethereum",
  "devdoc": {
    "kind": "dev",
    "methods": {
      "approve(address,uint256)": {
        "details": "See {IERC721-approve}."
      },
      "balanceOf(address)": {
        "details": "See {IERC721-balanceOf}."
      },
      "getApproved(uint256)": {
        "details": "See {IERC721-getApproved}."
      },
      "isApprovedForAll(address,address)": {
        "details": "See {IERC721-isApprovedForAll}."
      },
      "name()": {
        "details": "See {IERC721Metadata-name}."
      },
      "owner()": {
        "details": "Returns the address of the current owner."
      },
      "ownerOf(uint256)": {
        "details": "See {IERC721-ownerOf}."
      },
      "renounceOwnership()": {
        "details": "Leaves the contract without owner. It will not be possible to call `onlyOwner` functions anymore. Can only be called by the current owner. NOTE: Renouncing ownership will leave the contract without an owner, thereby removing any functionality that is only available to the owner."
      },
      "safeTransferFrom(address,address,uint256)": {
        "details": "See {IERC721-safeTransferFrom}."
      },
      "safeTransferFrom(address,address,uint256,bytes)": {
        "details": "See {IERC721-safeTransferFrom}."
      },
      "setApprovalForAll(address,bool)": {
        "details": "See {IERC721-setApprovalForAll}."
      },
      "supportsInterface(bytes4)": {
        "details": "See {IERC165-supportsInterface}."
      },
      "symbol()": {
        "details": "See {IERC721Metadata-symbol}."
      },
      "tokenByIndex(uint256)": {
        "details": "See {IERC721Enumerable-tokenByIndex}."
      },
      "tokenOfOwnerByIndex(address,uint256)": {
        "details": "See {IERC721Enumerable-tokenOfOwnerByIndex}."
      },
      "tokenURI(uint256)": {
        "details": "See {IERC721Metadata-tokenURI}."
      },
      "totalSupply()": {
        "details": "See {IERC721Enumerable-totalSupply}."
      },
      "transferFrom(address,address,uint256)": {
        "details": "See {IERC721-transferFrom}."
      },
      "transferOwnership(address)": {
        "details": "Transfers ownership of the contract to a new account (`newOwner`). Can only be called by the current owner."
      }
    },
    "version": 1
  },
  "userdoc": {
    "kind": "user",
    "methods": {},
    "version": 1
  }
}